{
  "_format": "hh-sol-artifact-1",
  "contractName": "Domains",
  "sourceName": "contracts/Domains.sol",
  "abi": [
    {
      "inputs": [
        {
          "internalType": "string",
          "name": "_tld",
          "type": "string"
        }
      ],
      "stateMutability": "payable",
      "type": "constructor"
    },
    {
      "anonymous": false,
      "inputs": [
        {
          "indexed": true,
          "internalType": "address",
          "name": "owner",
          "type": "address"
        },
        {
          "indexed": true,
          "internalType": "address",
          "name": "approved",
          "type": "address"
        },
        {
          "indexed": true,
          "internalType": "uint256",
          "name": "tokenId",
          "type": "uint256"
        }
      ],
      "name": "Approval",
      "type": "event"
    },
    {
      "anonymous": false,
      "inputs": [
        {
          "indexed": true,
          "internalType": "address",
          "name": "owner",
          "type": "address"
        },
        {
          "indexed": true,
          "internalType": "address",
          "name": "operator",
          "type": "address"
        },
        {
          "indexed": false,
          "internalType": "bool",
          "name": "approved",
          "type": "bool"
        }
      ],
      "name": "ApprovalForAll",
      "type": "event"
    },
    {
      "anonymous": false,
      "inputs": [
        {
          "indexed": true,
          "internalType": "address",
          "name": "from",
          "type": "address"
        },
        {
          "indexed": true,
          "internalType": "address",
          "name": "to",
          "type": "address"
        },
        {
          "indexed": true,
          "internalType": "uint256",
          "name": "tokenId",
          "type": "uint256"
        }
      ],
      "name": "Transfer",
      "type": "event"
    },
    {
      "inputs": [
        {
          "internalType": "address",
          "name": "to",
          "type": "address"
        },
        {
          "internalType": "uint256",
          "name": "tokenId",
          "type": "uint256"
        }
      ],
      "name": "approve",
      "outputs": [],
      "stateMutability": "nonpayable",
      "type": "function"
    },
    {
      "inputs": [
        {
          "internalType": "address",
          "name": "owner",
          "type": "address"
        }
      ],
      "name": "balanceOf",
      "outputs": [
        {
          "internalType": "uint256",
          "name": "",
          "type": "uint256"
        }
      ],
      "stateMutability": "view",
      "type": "function"
    },
    {
      "inputs": [
        {
          "internalType": "string",
          "name": "",
          "type": "string"
        }
      ],
      "name": "domains",
      "outputs": [
        {
          "internalType": "address",
          "name": "",
          "type": "address"
        }
      ],
      "stateMutability": "view",
      "type": "function"
    },
    {
      "inputs": [
        {
          "internalType": "uint256",
          "name": "tokenId",
          "type": "uint256"
        }
      ],
      "name": "getApproved",
      "outputs": [
        {
          "internalType": "address",
          "name": "",
          "type": "address"
        }
      ],
      "stateMutability": "view",
      "type": "function"
    },
    {
      "inputs": [
        {
          "internalType": "string",
          "name": "_domainName",
          "type": "string"
        }
      ],
      "name": "getDomainOwnerAddress",
      "outputs": [
        {
          "internalType": "address",
          "name": "",
          "type": "address"
        }
      ],
      "stateMutability": "view",
      "type": "function"
    },
    {
      "inputs": [
        {
          "internalType": "string",
          "name": "_requestedRecord",
          "type": "string"
        }
      ],
      "name": "getRecord",
      "outputs": [
        {
          "internalType": "string",
          "name": "",
          "type": "string"
        }
      ],
      "stateMutability": "view",
      "type": "function"
    },
    {
      "inputs": [
        {
          "internalType": "address",
          "name": "owner",
          "type": "address"
        },
        {
          "internalType": "address",
          "name": "operator",
          "type": "address"
        }
      ],
      "name": "isApprovedForAll",
      "outputs": [
        {
          "internalType": "bool",
          "name": "",
          "type": "bool"
        }
      ],
      "stateMutability": "view",
      "type": "function"
    },
    {
      "inputs": [],
      "name": "name",
      "outputs": [
        {
          "internalType": "string",
          "name": "",
          "type": "string"
        }
      ],
      "stateMutability": "view",
      "type": "function"
    },
    {
      "inputs": [
        {
          "internalType": "uint256",
          "name": "tokenId",
          "type": "uint256"
        }
      ],
      "name": "ownerOf",
      "outputs": [
        {
          "internalType": "address",
          "name": "",
          "type": "address"
        }
      ],
      "stateMutability": "view",
      "type": "function"
    },
    {
      "inputs": [
        {
          "internalType": "string",
          "name": "_newDomainName",
          "type": "string"
        }
      ],
      "name": "priceOfDomain",
      "outputs": [
        {
          "internalType": "uint256",
          "name": "",
          "type": "uint256"
        }
      ],
      "stateMutability": "pure",
      "type": "function"
    },
    {
      "inputs": [
        {
          "internalType": "string",
          "name": "",
          "type": "string"
        }
      ],
      "name": "records",
      "outputs": [
        {
          "internalType": "string",
          "name": "",
          "type": "string"
        }
      ],
      "stateMutability": "view",
      "type": "function"
    },
    {
      "inputs": [
        {
          "internalType": "string",
          "name": "_newDomainName",
          "type": "string"
        }
      ],
      "name": "register",
      "outputs": [],
      "stateMutability": "payable",
      "type": "function"
    },
    {
      "inputs": [
        {
          "internalType": "address",
          "name": "from",
          "type": "address"
        },
        {
          "internalType": "address",
          "name": "to",
          "type": "address"
        },
        {
          "internalType": "uint256",
          "name": "tokenId",
          "type": "uint256"
        }
      ],
      "name": "safeTransferFrom",
      "outputs": [],
      "stateMutability": "nonpayable",
      "type": "function"
    },
    {
      "inputs": [
        {
          "internalType": "address",
          "name": "from",
          "type": "address"
        },
        {
          "internalType": "address",
          "name": "to",
          "type": "address"
        },
        {
          "internalType": "uint256",
          "name": "tokenId",
          "type": "uint256"
        },
        {
          "internalType": "bytes",
          "name": "_data",
          "type": "bytes"
        }
      ],
      "name": "safeTransferFrom",
      "outputs": [],
      "stateMutability": "nonpayable",
      "type": "function"
    },
    {
      "inputs": [
        {
          "internalType": "address",
          "name": "operator",
          "type": "address"
        },
        {
          "internalType": "bool",
          "name": "approved",
          "type": "bool"
        }
      ],
      "name": "setApprovalForAll",
      "outputs": [],
      "stateMutability": "nonpayable",
      "type": "function"
    },
    {
      "inputs": [
        {
          "internalType": "string",
          "name": "_domainName",
          "type": "string"
        },
        {
          "internalType": "string",
          "name": "_newRecord",
          "type": "string"
        }
      ],
      "name": "setRecord",
      "outputs": [],
      "stateMutability": "nonpayable",
      "type": "function"
    },
    {
      "inputs": [
        {
          "internalType": "bytes4",
          "name": "interfaceId",
          "type": "bytes4"
        }
      ],
      "name": "supportsInterface",
      "outputs": [
        {
          "internalType": "bool",
          "name": "",
          "type": "bool"
        }
      ],
      "stateMutability": "view",
      "type": "function"
    },
    {
      "inputs": [],
      "name": "symbol",
      "outputs": [
        {
          "internalType": "string",
          "name": "",
          "type": "string"
        }
      ],
      "stateMutability": "view",
      "type": "function"
    },
    {
      "inputs": [],
      "name": "tld",
      "outputs": [
        {
          "internalType": "string",
          "name": "",
          "type": "string"
        }
      ],
      "stateMutability": "view",
      "type": "function"
    },
    {
      "inputs": [
        {
          "internalType": "uint256",
          "name": "tokenId",
          "type": "uint256"
        }
      ],
      "name": "tokenURI",
      "outputs": [
        {
          "internalType": "string",
          "name": "",
          "type": "string"
        }
      ],
      "stateMutability": "view",
      "type": "function"
    },
    {
      "inputs": [
        {
          "internalType": "address",
          "name": "from",
          "type": "address"
        },
        {
          "internalType": "address",
          "name": "to",
          "type": "address"
        },
        {
          "internalType": "uint256",
          "name": "tokenId",
          "type": "uint256"
        }
      ],
      "name": "transferFrom",
      "outputs": [],
      "stateMutability": "nonpayable",
      "type": "function"
    }
  ],
  "bytecode": "0x6080604052604051806108a0016040528061086b815260200162004a4961086b9139600990805190602001906200003892919062000287565b506040518060400160405280600d81526020017f3c2f746578743e3c2f7376673e00000000000000000000000000000000000000815250600a90805190602001906200008692919062000287565b50604051620052b4380380620052b48339818101604052810190620000ac9190620004d4565b6040518060400160405280601481526020017f41766f6361646f204e616d6520536572766963650000000000000000000000008152506040518060400160405280600381526020017f414e53000000000000000000000000000000000000000000000000000000000081525081600090805190602001906200013092919062000287565b5080600190805190602001906200014992919062000287565b50505080600890805190602001906200016492919062000287565b50620001b16040518060400160405280601881526020017f2573206e616d652073657276696365206465706c6f796564000000000000000081525082620001b860201b6200154b1760201c565b5062000622565b6200025a8282604051602401620001d192919062000582565b6040516020818303038152906040527f4b5c4277000000000000000000000000000000000000000000000000000000007bffffffffffffffffffffffffffffffffffffffffffffffffffffffff19166020820180517bffffffffffffffffffffffffffffffffffffffffffffffffffffffff83818316178352505050506200025e60201b60201c565b5050565b60008151905060006a636f6e736f6c652e6c6f679050602083016000808483855afa5050505050565b8280546200029590620005ec565b90600052602060002090601f016020900481019282620002b9576000855562000305565b82601f10620002d457805160ff191683800117855562000305565b8280016001018555821562000305579182015b8281111562000304578251825591602001919060010190620002e7565b5b50905062000314919062000318565b5090565b5b808211156200033357600081600090555060010162000319565b5090565b6000604051905090565b600080fd5b600080fd5b600080fd5b600080fd5b6000601f19601f8301169050919050565b7f4e487b7100000000000000000000000000000000000000000000000000000000600052604160045260246000fd5b620003a08262000355565b810181811067ffffffffffffffff82111715620003c257620003c162000366565b5b80604052505050565b6000620003d762000337565b9050620003e5828262000395565b919050565b600067ffffffffffffffff82111562000408576200040762000366565b5b620004138262000355565b9050602081019050919050565b60005b838110156200044057808201518184015260208101905062000423565b8381111562000450576000848401525b50505050565b60006200046d6200046784620003ea565b620003cb565b9050828152602081018484840111156200048c576200048b62000350565b5b6200049984828562000420565b509392505050565b600082601f830112620004b957620004b86200034b565b5b8151620004cb84826020860162000456565b91505092915050565b600060208284031215620004ed57620004ec62000341565b5b600082015167ffffffffffffffff8111156200050e576200050d62000346565b5b6200051c84828501620004a1565b91505092915050565b600081519050919050565b600082825260208201905092915050565b60006200054e8262000525565b6200055a818562000530565b93506200056c81856020860162000420565b620005778162000355565b840191505092915050565b600060408201905081810360008301526200059e818562000541565b90508181036020830152620005b4818462000541565b90509392505050565b7f4e487b7100000000000000000000000000000000000000000000000000000000600052602260045260246000fd5b600060028204905060018216806200060557607f821691505b602082108114156200061c576200061b620005bd565b5b50919050565b61441780620006326000396000f3fe60806040526004361061012a5760003560e01c8063541e771d116100ab578063b88d4fde1161006f578063b88d4fde1461043c578063c1880a9814610465578063c87b56dd1461048e578063e17349c2146104cb578063e985e9c514610508578063f2c298be146105455761012a565b8063541e771d146103315780636352211e1461036e57806370a08231146103ab57806395d89b41146103e8578063a22cb465146104135761012a565b8063141342a4116100f2578063141342a41461023a57806323b872dd1461027757806326449235146102a05780632d551432146102dd57806342842e0e146103085761012a565b806301ffc9a71461012f57806306fdde031461016c578063081812fc14610197578063095ea7b3146101d457806311dd8845146101fd575b600080fd5b34801561013b57600080fd5b5061015660048036038101906101519190612a2d565b610561565b6040516101639190612a75565b60405180910390f35b34801561017857600080fd5b50610181610643565b60405161018e9190612b29565b60405180910390f35b3480156101a357600080fd5b506101be60048036038101906101b99190612b81565b6106d5565b6040516101cb9190612bef565b60405180910390f35b3480156101e057600080fd5b506101fb60048036038101906101f69190612c36565b61075a565b005b34801561020957600080fd5b50610224600480360381019061021f9190612cdb565b610872565b6040516102319190612b29565b60405180910390f35b34801561024657600080fd5b50610261600480360381019061025c9190612cdb565b610925565b60405161026e9190612bef565b60405180910390f35b34801561028357600080fd5b5061029e60048036038101906102999190612d28565b610970565b005b3480156102ac57600080fd5b506102c760048036038101906102c29190612eab565b6109d0565b6040516102d49190612bef565b60405180910390f35b3480156102e957600080fd5b506102f2610a19565b6040516102ff9190612b29565b60405180910390f35b34801561031457600080fd5b5061032f600480360381019061032a9190612d28565b610aa7565b005b34801561033d57600080fd5b5061035860048036038101906103539190612eab565b610ac7565b6040516103659190612b29565b60405180910390f35b34801561037a57600080fd5b5061039560048036038101906103909190612b81565b610b7d565b6040516103a29190612bef565b60405180910390f35b3480156103b757600080fd5b506103d260048036038101906103cd9190612ef4565b610c2f565b6040516103df9190612f30565b60405180910390f35b3480156103f457600080fd5b506103fd610ce7565b60405161040a9190612b29565b60405180910390f35b34801561041f57600080fd5b5061043a60048036038101906104359190612f77565b610d79565b005b34801561044857600080fd5b50610463600480360381019061045e9190613058565b610d8f565b005b34801561047157600080fd5b5061048c600480360381019061048791906130db565b610df1565b005b34801561049a57600080fd5b506104b560048036038101906104b09190612b81565b610e9f565b6040516104c29190612b29565b60405180910390f35b3480156104d757600080fd5b506104f260048036038101906104ed9190612cdb565b610ff1565b6040516104ff9190612f30565b60405180910390f35b34801561051457600080fd5b5061052f600480360381019061052a919061315c565b611097565b60405161053c9190612a75565b60405180910390f35b61055f600480360381019061055a9190612cdb565b61112b565b005b60007f80ac58cd000000000000000000000000000000000000000000000000000000007bffffffffffffffffffffffffffffffffffffffffffffffffffffffff1916827bffffffffffffffffffffffffffffffffffffffffffffffffffffffff1916148061062c57507f5b5e139f000000000000000000000000000000000000000000000000000000007bffffffffffffffffffffffffffffffffffffffffffffffffffffffff1916827bffffffffffffffffffffffffffffffffffffffffffffffffffffffff1916145b8061063c575061063b826115e7565b5b9050919050565b606060008054610652906131cb565b80601f016020809104026020016040519081016040528092919081815260200182805461067e906131cb565b80156106cb5780601f106106a0576101008083540402835291602001916106cb565b820191906000526020600020905b8154815290600101906020018083116106ae57829003601f168201915b5050505050905090565b60006106e082611651565b61071f576040517f08c379a00000000000000000000000000000000000000000000000000000000081526004016107169061326f565b60405180910390fd5b6004600083815260200190815260200160002060009054906101000a900473ffffffffffffffffffffffffffffffffffffffff169050919050565b600061076582610b7d565b90508073ffffffffffffffffffffffffffffffffffffffff168373ffffffffffffffffffffffffffffffffffffffff1614156107d6576040517f08c379a00000000000000000000000000000000000000000000000000000000081526004016107cd90613301565b60405180910390fd5b8073ffffffffffffffffffffffffffffffffffffffff166107f56116bd565b73ffffffffffffffffffffffffffffffffffffffff16148061082457506108238161081e6116bd565b611097565b5b610863576040517f08c379a000000000000000000000000000000000000000000000000000000000815260040161085a90613393565b60405180910390fd5b61086d83836116c5565b505050565b6060600c83836040516108869291906133e3565b9081526020016040518091039020805461089f906131cb565b80601f01602080910402602001604051908101604052809291908181526020018280546108cb906131cb565b80156109185780601f106108ed57610100808354040283529160200191610918565b820191906000526020600020905b8154815290600101906020018083116108fb57829003601f168201915b5050505050905092915050565b6000600b83836040516109399291906133e3565b908152602001604051809103902060009054906101000a900473ffffffffffffffffffffffffffffffffffffffff16905092915050565b61098161097b6116bd565b8261177e565b6109c0576040517f08c379a00000000000000000000000000000000000000000000000000000000081526004016109b79061346e565b60405180910390fd5b6109cb83838361185c565b505050565b600b818051602081018201805184825260208301602085012081835280955050505050506000915054906101000a900473ffffffffffffffffffffffffffffffffffffffff1681565b60088054610a26906131cb565b80601f0160208091040260200160405190810160405280929190818152602001828054610a52906131cb565b8015610a9f5780601f10610a7457610100808354040283529160200191610a9f565b820191906000526020600020905b815481529060010190602001808311610a8257829003601f168201915b505050505081565b610ac283838360405180602001604052806000815250610d8f565b505050565b600c818051602081018201805184825260208301602085012081835280955050505050506000915090508054610afc906131cb565b80601f0160208091040260200160405190810160405280929190818152602001828054610b28906131cb565b8015610b755780601f10610b4a57610100808354040283529160200191610b75565b820191906000526020600020905b815481529060010190602001808311610b5857829003601f168201915b505050505081565b6000806002600084815260200190815260200160002060009054906101000a900473ffffffffffffffffffffffffffffffffffffffff169050600073ffffffffffffffffffffffffffffffffffffffff168173ffffffffffffffffffffffffffffffffffffffff161415610c26576040517f08c379a0000000000000000000000000000000000000000000000000000000008152600401610c1d90613500565b60405180910390fd5b80915050919050565b60008073ffffffffffffffffffffffffffffffffffffffff168273ffffffffffffffffffffffffffffffffffffffff161415610ca0576040517f08c379a0000000000000000000000000000000000000000000000000000000008152600401610c9790613592565b60405180910390fd5b600360008373ffffffffffffffffffffffffffffffffffffffff1673ffffffffffffffffffffffffffffffffffffffff168152602001908152602001600020549050919050565b606060018054610cf6906131cb565b80601f0160208091040260200160405190810160405280929190818152602001828054610d22906131cb565b8015610d6f5780601f10610d4457610100808354040283529160200191610d6f565b820191906000526020600020905b815481529060010190602001808311610d5257829003601f168201915b5050505050905090565b610d8b610d846116bd565b8383611ac3565b5050565b610da0610d9a6116bd565b8361177e565b610ddf576040517f08c379a0000000000000000000000000000000000000000000000000000000008152600401610dd69061346e565b60405180910390fd5b610deb84848484611c30565b50505050565b3373ffffffffffffffffffffffffffffffffffffffff16600b8585604051610e1a9291906133e3565b908152602001604051809103902060009054906101000a900473ffffffffffffffffffffffffffffffffffffffff1673ffffffffffffffffffffffffffffffffffffffff1614610e6957600080fd5b8181600c8686604051610e7d9291906133e3565b90815260200160405180910390209190610e98929190612898565b5050505050565b6060610eaa82611651565b610ee9576040517f08c379a0000000000000000000000000000000000000000000000000000000008152600401610ee090613624565b60405180910390fd5b6000600660008481526020019081526020016000208054610f09906131cb565b80601f0160208091040260200160405190810160405280929190818152602001828054610f35906131cb565b8015610f825780601f10610f5757610100808354040283529160200191610f82565b820191906000526020600020905b815481529060010190602001808311610f6557829003601f168201915b505050505090506000610f93611c8c565b9050600081511415610fa9578192505050610fec565b600082511115610fde578082604051602001610fc6929190613675565b60405160208183030381529060405292505050610fec565b610fe784611ca3565b925050505b919050565b60008061104184848080601f016020809104026020016040519081016040528093929190818152602001838380828437600081840152601f19601f82011690508083019250505050505050611d4a565b90506000811161105057600080fd5b600381141561106a576706f05b59d3b20000915050611091565b600481141561108457670429d069189e0000915050611091565b67016345785d8a00009150505b92915050565b6000600560008473ffffffffffffffffffffffffffffffffffffffff1673ffffffffffffffffffffffffffffffffffffffff16815260200190815260200160002060008373ffffffffffffffffffffffffffffffffffffffff1673ffffffffffffffffffffffffffffffffffffffff16815260200190815260200160002060009054906101000a900460ff16905092915050565b600073ffffffffffffffffffffffffffffffffffffffff16600b83836040516111559291906133e3565b908152602001604051809103902060009054906101000a900473ffffffffffffffffffffffffffffffffffffffff1673ffffffffffffffffffffffffffffffffffffffff16146111a457600080fd5b60006111b08383610ff1565b9050803410156111f5576040517f08c379a00000000000000000000000000000000000000000000000000000000081526004016111ec906136e5565b60405180910390fd5b6112346040518060400160405280601b81526020017f2573206861732072656769737465726564206120646f6d61696e21000000000081525033611eff565b60008383600860405160200161124c939291906137e5565b60405160208183030381529060405290506000600982600a60405160200161127693929190613816565b604051602081830303815290604052905060006112936007611f9b565b905060006112e487878080601f016020809104026020016040519081016040528093929190818152602001838380828437600081840152601f19601f82011690508083019250505050505050611d4a565b905060006112f182611fa9565b90506113e56040518060600160405280603181526020016143386031913989898080601f016020809104026020016040519081016040528093929190818152602001838380828437600081840152601f19601f8201169050808301925050505050505060088054611361906131cb565b80601f016020809104026020016040519081016040528092919081815260200182805461138d906131cb565b80156113da5780601f106113af576101008083540402835291602001916113da565b820191906000526020600020905b8154815290600101906020018083116113bd57829003601f168201915b50505050508661210a565b600061141b866113f4876121ac565b84604051602001611407939291906139c3565b6040516020818303038152906040526121ac565b90506000816040516020016114309190613a6c565b604051602081830303815290604052905061144b3386612344565b6114558582612362565b33600b8b8b6040516114689291906133e3565b908152602001604051809103902060006101000a81548173ffffffffffffffffffffffffffffffffffffffff021916908373ffffffffffffffffffffffffffffffffffffffff1602179055506114d56040518060600160405280603981526020016142ff603991396123d6565b6115146040518060400160405280600e81526020017f46696e616c20746f6b656e5552490000000000000000000000000000000000008152508261154b565b611535604051806060016040528060398152602001614369603991396123d6565b61153f600761246f565b50505050505050505050565b6115e38282604051602401611561929190613a8e565b6040516020818303038152906040527f4b5c4277000000000000000000000000000000000000000000000000000000007bffffffffffffffffffffffffffffffffffffffffffffffffffffffff19166020820180517bffffffffffffffffffffffffffffffffffffffffffffffffffffffff8381831617835250505050612485565b5050565b60007f01ffc9a7000000000000000000000000000000000000000000000000000000007bffffffffffffffffffffffffffffffffffffffffffffffffffffffff1916827bffffffffffffffffffffffffffffffffffffffffffffffffffffffff1916149050919050565b60008073ffffffffffffffffffffffffffffffffffffffff166002600084815260200190815260200160002060009054906101000a900473ffffffffffffffffffffffffffffffffffffffff1673ffffffffffffffffffffffffffffffffffffffff1614159050919050565b600033905090565b816004600083815260200190815260200160002060006101000a81548173ffffffffffffffffffffffffffffffffffffffff021916908373ffffffffffffffffffffffffffffffffffffffff160217905550808273ffffffffffffffffffffffffffffffffffffffff1661173883610b7d565b73ffffffffffffffffffffffffffffffffffffffff167f8c5be1e5ebec7d5bd14f71427d1e84f3dd0314c0f7b2291e5b200ac8c7c3b92560405160405180910390a45050565b600061178982611651565b6117c8576040517f08c379a00000000000000000000000000000000000000000000000000000000081526004016117bf90613b37565b60405180910390fd5b60006117d383610b7d565b90508073ffffffffffffffffffffffffffffffffffffffff168473ffffffffffffffffffffffffffffffffffffffff16148061184257508373ffffffffffffffffffffffffffffffffffffffff1661182a846106d5565b73ffffffffffffffffffffffffffffffffffffffff16145b8061185357506118528185611097565b5b91505092915050565b8273ffffffffffffffffffffffffffffffffffffffff1661187c82610b7d565b73ffffffffffffffffffffffffffffffffffffffff16146118d2576040517f08c379a00000000000000000000000000000000000000000000000000000000081526004016118c990613bc9565b60405180910390fd5b600073ffffffffffffffffffffffffffffffffffffffff168273ffffffffffffffffffffffffffffffffffffffff161415611942576040517f08c379a000000000000000000000000000000000000000000000000000000000815260040161193990613c5b565b60405180910390fd5b61194d8383836124ae565b6119586000826116c5565b6001600360008573ffffffffffffffffffffffffffffffffffffffff1673ffffffffffffffffffffffffffffffffffffffff16815260200190815260200160002060008282546119a89190613caa565b925050819055506001600360008473ffffffffffffffffffffffffffffffffffffffff1673ffffffffffffffffffffffffffffffffffffffff16815260200190815260200160002060008282546119ff9190613cde565b92505081905550816002600083815260200190815260200160002060006101000a81548173ffffffffffffffffffffffffffffffffffffffff021916908373ffffffffffffffffffffffffffffffffffffffff160217905550808273ffffffffffffffffffffffffffffffffffffffff168473ffffffffffffffffffffffffffffffffffffffff167fddf252ad1be2c89b69c2b068fc378daa952ba7f163c4a11628f55a4df523b3ef60405160405180910390a4611abe8383836124b3565b505050565b8173ffffffffffffffffffffffffffffffffffffffff168373ffffffffffffffffffffffffffffffffffffffff161415611b32576040517f08c379a0000000000000000000000000000000000000000000000000000000008152600401611b2990613d80565b60405180910390fd5b80600560008573ffffffffffffffffffffffffffffffffffffffff1673ffffffffffffffffffffffffffffffffffffffff16815260200190815260200160002060008473ffffffffffffffffffffffffffffffffffffffff1673ffffffffffffffffffffffffffffffffffffffff16815260200190815260200160002060006101000a81548160ff0219169083151502179055508173ffffffffffffffffffffffffffffffffffffffff168373ffffffffffffffffffffffffffffffffffffffff167f17307eab39ab6107e8899845ad3d59bd9653f200f220920489ca2b5937696c3183604051611c239190612a75565b60405180910390a3505050565b611c3b84848461185c565b611c47848484846124b8565b611c86576040517f08c379a0000000000000000000000000000000000000000000000000000000008152600401611c7d90613e12565b60405180910390fd5b50505050565b606060405180602001604052806000815250905090565b6060611cae82611651565b611ced576040517f08c379a0000000000000000000000000000000000000000000000000000000008152600401611ce490613ea4565b60405180910390fd5b6000611cf7611c8c565b90506000815111611d175760405180602001604052806000815250611d42565b80611d2184611fa9565b604051602001611d32929190613675565b6040516020818303038152906040525b915050919050565b60008060008084519050600092505b80821015611ef4576000858381518110611d7657611d75613ec4565b5b602001015160f81c60f81b9050608060f81b817effffffffffffffffffffffffffffffffffffffffffffffffffffffffffffff19161015611dc557600183611dbe9190613cde565b9250611ee0565b60e060f81b817effffffffffffffffffffffffffffffffffffffffffffffffffffffffffffff19161015611e0757600283611e009190613cde565b9250611edf565b60f060f81b817effffffffffffffffffffffffffffffffffffffffffffffffffffffffffffff19161015611e4957600383611e429190613cde565b9250611ede565b60f8801b817effffffffffffffffffffffffffffffffffffffffffffffffffffffffffffff19161015611e8a57600483611e839190613cde565b9250611edd565b60fc60f81b817effffffffffffffffffffffffffffffffffffffffffffffffffffffffffffff19161015611ecc57600583611ec59190613cde565b9250611edc565b600683611ed99190613cde565b92505b5b5b5b5b508280611eec90613ef3565b935050611d59565b829350505050919050565b611f978282604051602401611f15929190613f3c565b6040516020818303038152906040527f319af333000000000000000000000000000000000000000000000000000000007bffffffffffffffffffffffffffffffffffffffffffffffffffffffff19166020820180517bffffffffffffffffffffffffffffffffffffffffffffffffffffffff8381831617835250505050612485565b5050565b600081600001549050919050565b60606000821415611ff1576040518060400160405280600181526020017f30000000000000000000000000000000000000000000000000000000000000008152509050612105565b600082905060005b6000821461202357808061200c90613ef3565b915050600a8261201c9190613f9b565b9150611ff9565b60008167ffffffffffffffff81111561203f5761203e612d80565b5b6040519080825280601f01601f1916602001820160405280156120715781602001600182028036833780820191505090505b5090505b600085146120fe5760018261208a9190613caa565b9150600a856120999190613fcc565b60306120a59190613cde565b60f81b8183815181106120bb576120ba613ec4565b5b60200101907effffffffffffffffffffffffffffffffffffffffffffffffffffffffffffff1916908160001a905350600a856120f79190613f9b565b9450612075565b8093505050505b919050565b6121a6848484846040516024016121249493929190613ffd565b6040516020818303038152906040527f9fd009f5000000000000000000000000000000000000000000000000000000007bffffffffffffffffffffffffffffffffffffffffffffffffffffffff19166020820180517bffffffffffffffffffffffffffffffffffffffffffffffffffffffff8381831617835250505050612485565b50505050565b606060008251905060008114156121d5576040518060200160405280600081525091505061233f565b600060036002836121e69190613cde565b6121f09190613f9b565b60046121fc9190614057565b9050600060208261220d9190613cde565b67ffffffffffffffff81111561222657612225612d80565b5b6040519080825280601f01601f1916602001820160405280156122585781602001600182028036833780820191505090505b50905060006040518060600160405280604081526020016143a2604091399050600181016020830160005b868110156122fc5760038101905062ffffff818a015116603f8160121c168401518060081b905060ff603f83600c1c1686015116810190508060081b905060ff603f8360061c1686015116810190508060081b905060ff603f831686015116810190508060e01b90508084526004840193505050612283565b506003860660018114612316576002811461232657612331565b613d3d60f01b6002830352612331565b603d60f81b60018303525b508484525050819450505050505b919050565b61235e828260405180602001604052806000815250612640565b5050565b61236b82611651565b6123aa576040517f08c379a00000000000000000000000000000000000000000000000000000000081526004016123a190614123565b60405180910390fd5b806006600084815260200190815260200160002090805190602001906123d192919061291e565b505050565b61246c816040516024016123ea9190612b29565b6040516020818303038152906040527f41304fac000000000000000000000000000000000000000000000000000000007bffffffffffffffffffffffffffffffffffffffffffffffffffffffff19166020820180517bffffffffffffffffffffffffffffffffffffffffffffffffffffffff8381831617835250505050612485565b50565b6001816000016000828254019250508190555050565b60008151905060006a636f6e736f6c652e6c6f679050602083016000808483855afa5050505050565b505050565b505050565b60006124d98473ffffffffffffffffffffffffffffffffffffffff1661269b565b15612633578373ffffffffffffffffffffffffffffffffffffffff1663150b7a026125026116bd565b8786866040518563ffffffff1660e01b81526004016125249493929190614198565b6020604051808303816000875af192505050801561256057506040513d601f19601f8201168201806040525081019061255d91906141f9565b60015b6125e3573d8060008114612590576040519150601f19603f3d011682016040523d82523d6000602084013e612595565b606091505b506000815114156125db576040517f08c379a00000000000000000000000000000000000000000000000000000000081526004016125d290613e12565b60405180910390fd5b805181602001fd5b63150b7a0260e01b7bffffffffffffffffffffffffffffffffffffffffffffffffffffffff1916817bffffffffffffffffffffffffffffffffffffffffffffffffffffffff191614915050612638565b600190505b949350505050565b61264a83836126be565b61265760008484846124b8565b612696576040517f08c379a000000000000000000000000000000000000000000000000000000000815260040161268d90613e12565b60405180910390fd5b505050565b6000808273ffffffffffffffffffffffffffffffffffffffff163b119050919050565b600073ffffffffffffffffffffffffffffffffffffffff168273ffffffffffffffffffffffffffffffffffffffff16141561272e576040517f08c379a000000000000000000000000000000000000000000000000000000000815260040161272590614272565b60405180910390fd5b61273781611651565b15612777576040517f08c379a000000000000000000000000000000000000000000000000000000000815260040161276e906142de565b60405180910390fd5b612783600083836124ae565b6001600360008473ffffffffffffffffffffffffffffffffffffffff1673ffffffffffffffffffffffffffffffffffffffff16815260200190815260200160002060008282546127d39190613cde565b92505081905550816002600083815260200190815260200160002060006101000a81548173ffffffffffffffffffffffffffffffffffffffff021916908373ffffffffffffffffffffffffffffffffffffffff160217905550808273ffffffffffffffffffffffffffffffffffffffff16600073ffffffffffffffffffffffffffffffffffffffff167fddf252ad1be2c89b69c2b068fc378daa952ba7f163c4a11628f55a4df523b3ef60405160405180910390a4612894600083836124b3565b5050565b8280546128a4906131cb565b90600052602060002090601f0160209004810192826128c6576000855561290d565b82601f106128df57803560ff191683800117855561290d565b8280016001018555821561290d579182015b8281111561290c5782358255916020019190600101906128f1565b5b50905061291a91906129a4565b5090565b82805461292a906131cb565b90600052602060002090601f01602090048101928261294c5760008555612993565b82601f1061296557805160ff1916838001178555612993565b82800160010185558215612993579182015b82811115612992578251825591602001919060010190612977565b5b5090506129a091906129a4565b5090565b5b808211156129bd5760008160009055506001016129a5565b5090565b6000604051905090565b600080fd5b600080fd5b60007fffffffff0000000000000000000000000000000000000000000000000000000082169050919050565b612a0a816129d5565b8114612a1557600080fd5b50565b600081359050612a2781612a01565b92915050565b600060208284031215612a4357612a426129cb565b5b6000612a5184828501612a18565b91505092915050565b60008115159050919050565b612a6f81612a5a565b82525050565b6000602082019050612a8a6000830184612a66565b92915050565b600081519050919050565b600082825260208201905092915050565b60005b83811015612aca578082015181840152602081019050612aaf565b83811115612ad9576000848401525b50505050565b6000601f19601f8301169050919050565b6000612afb82612a90565b612b058185612a9b565b9350612b15818560208601612aac565b612b1e81612adf565b840191505092915050565b60006020820190508181036000830152612b438184612af0565b905092915050565b6000819050919050565b612b5e81612b4b565b8114612b6957600080fd5b50565b600081359050612b7b81612b55565b92915050565b600060208284031215612b9757612b966129cb565b5b6000612ba584828501612b6c565b91505092915050565b600073ffffffffffffffffffffffffffffffffffffffff82169050919050565b6000612bd982612bae565b9050919050565b612be981612bce565b82525050565b6000602082019050612c046000830184612be0565b92915050565b612c1381612bce565b8114612c1e57600080fd5b50565b600081359050612c3081612c0a565b92915050565b60008060408385031215612c4d57612c4c6129cb565b5b6000612c5b85828601612c21565b9250506020612c6c85828601612b6c565b9150509250929050565b600080fd5b600080fd5b600080fd5b60008083601f840112612c9b57612c9a612c76565b5b8235905067ffffffffffffffff811115612cb857612cb7612c7b565b5b602083019150836001820283011115612cd457612cd3612c80565b5b9250929050565b60008060208385031215612cf257612cf16129cb565b5b600083013567ffffffffffffffff811115612d1057612d0f6129d0565b5b612d1c85828601612c85565b92509250509250929050565b600080600060608486031215612d4157612d406129cb565b5b6000612d4f86828701612c21565b9350506020612d6086828701612c21565b9250506040612d7186828701612b6c565b9150509250925092565b600080fd5b7f4e487b7100000000000000000000000000000000000000000000000000000000600052604160045260246000fd5b612db882612adf565b810181811067ffffffffffffffff82111715612dd757612dd6612d80565b5b80604052505050565b6000612dea6129c1565b9050612df68282612daf565b919050565b600067ffffffffffffffff821115612e1657612e15612d80565b5b612e1f82612adf565b9050602081019050919050565b82818337600083830152505050565b6000612e4e612e4984612dfb565b612de0565b905082815260208101848484011115612e6a57612e69612d7b565b5b612e75848285612e2c565b509392505050565b600082601f830112612e9257612e91612c76565b5b8135612ea2848260208601612e3b565b91505092915050565b600060208284031215612ec157612ec06129cb565b5b600082013567ffffffffffffffff811115612edf57612ede6129d0565b5b612eeb84828501612e7d565b91505092915050565b600060208284031215612f0a57612f096129cb565b5b6000612f1884828501612c21565b91505092915050565b612f2a81612b4b565b82525050565b6000602082019050612f456000830184612f21565b92915050565b612f5481612a5a565b8114612f5f57600080fd5b50565b600081359050612f7181612f4b565b92915050565b60008060408385031215612f8e57612f8d6129cb565b5b6000612f9c85828601612c21565b9250506020612fad85828601612f62565b9150509250929050565b600067ffffffffffffffff821115612fd257612fd1612d80565b5b612fdb82612adf565b9050602081019050919050565b6000612ffb612ff684612fb7565b612de0565b90508281526020810184848401111561301757613016612d7b565b5b613022848285612e2c565b509392505050565b600082601f83011261303f5761303e612c76565b5b813561304f848260208601612fe8565b91505092915050565b60008060008060808587031215613072576130716129cb565b5b600061308087828801612c21565b945050602061309187828801612c21565b93505060406130a287828801612b6c565b925050606085013567ffffffffffffffff8111156130c3576130c26129d0565b5b6130cf8782880161302a565b91505092959194509250565b600080600080604085870312156130f5576130f46129cb565b5b600085013567ffffffffffffffff811115613113576131126129d0565b5b61311f87828801612c85565b9450945050602085013567ffffffffffffffff811115613142576131416129d0565b5b61314e87828801612c85565b925092505092959194509250565b60008060408385031215613173576131726129cb565b5b600061318185828601612c21565b925050602061319285828601612c21565b9150509250929050565b7f4e487b7100000000000000000000000000000000000000000000000000000000600052602260045260246000fd5b600060028204905060018216806131e357607f821691505b602082108114156131f7576131f661319c565b5b50919050565b7f4552433732313a20617070726f76656420717565727920666f72206e6f6e657860008201527f697374656e7420746f6b656e0000000000000000000000000000000000000000602082015250565b6000613259602c83612a9b565b9150613264826131fd565b604082019050919050565b600060208201905081810360008301526132888161324c565b9050919050565b7f4552433732313a20617070726f76616c20746f2063757272656e74206f776e6560008201527f7200000000000000000000000000000000000000000000000000000000000000602082015250565b60006132eb602183612a9b565b91506132f68261328f565b604082019050919050565b6000602082019050818103600083015261331a816132de565b9050919050565b7f4552433732313a20617070726f76652063616c6c6572206973206e6f74206f7760008201527f6e6572206e6f7220617070726f76656420666f7220616c6c0000000000000000602082015250565b600061337d603883612a9b565b915061338882613321565b604082019050919050565b600060208201905081810360008301526133ac81613370565b9050919050565b600081905092915050565b60006133ca83856133b3565b93506133d7838584612e2c565b82840190509392505050565b60006133f08284866133be565b91508190509392505050565b7f4552433732313a207472616e736665722063616c6c6572206973206e6f74206f60008201527f776e6572206e6f7220617070726f766564000000000000000000000000000000602082015250565b6000613458603183612a9b565b9150613463826133fc565b604082019050919050565b600060208201905081810360008301526134878161344b565b9050919050565b7f4552433732313a206f776e657220717565727920666f72206e6f6e657869737460008201527f656e7420746f6b656e0000000000000000000000000000000000000000000000602082015250565b60006134ea602983612a9b565b91506134f58261348e565b604082019050919050565b60006020820190508181036000830152613519816134dd565b9050919050565b7f4552433732313a2062616c616e636520717565727920666f7220746865207a6560008201527f726f206164647265737300000000000000000000000000000000000000000000602082015250565b600061357c602a83612a9b565b915061358782613520565b604082019050919050565b600060208201905081810360008301526135ab8161356f565b9050919050565b7f45524337323155524953746f726167653a2055524920717565727920666f722060008201527f6e6f6e6578697374656e7420746f6b656e000000000000000000000000000000602082015250565b600061360e603183612a9b565b9150613619826135b2565b604082019050919050565b6000602082019050818103600083015261363d81613601565b9050919050565b600061364f82612a90565b61365981856133b3565b9350613669818560208601612aac565b80840191505092915050565b60006136818285613644565b915061368d8284613644565b91508190509392505050565b7f4e6f7420656e6f756768206d6174696320706169640000000000000000000000600082015250565b60006136cf601583612a9b565b91506136da82613699565b602082019050919050565b600060208201905081810360008301526136fe816136c2565b9050919050565b7f2e00000000000000000000000000000000000000000000000000000000000000600082015250565b600061373b6001836133b3565b915061374682613705565b600182019050919050565b60008190508160005260206000209050919050565b60008154613773816131cb565b61377d81866133b3565b9450600182166000811461379857600181146137a9576137dc565b60ff198316865281860193506137dc565b6137b285613751565b60005b838110156137d4578154818901526001820191506020810190506137b5565b838801955050505b50505092915050565b60006137f28285876133be565b91506137fd8261372e565b91506138098284613766565b9150819050949350505050565b60006138228286613766565b915061382e8285613644565b915061383a8284613766565b9150819050949350505050565b7f7b226e616d65223a202200000000000000000000000000000000000000000000600082015250565b600061387d600a836133b3565b915061388882613847565b600a82019050919050565b7f222c20226465736372697074696f6e223a20224120646f6d61696e206f6e207460008201527f6865204e696e6a61206e616d652073657276696365222c2022696d616765223a60208201527f2022646174613a696d6167652f7376672b786d6c3b6261736536342c00000000604082015250565b6000613915605c836133b3565b915061392082613893565b605c82019050919050565b7f222c226c656e677468223a220000000000000000000000000000000000000000600082015250565b6000613961600c836133b3565b915061396c8261392b565b600c82019050919050565b7f227d000000000000000000000000000000000000000000000000000000000000600082015250565b60006139ad6002836133b3565b91506139b882613977565b600282019050919050565b60006139ce82613870565b91506139da8286613644565b91506139e582613908565b91506139f18285613644565b91506139fc82613954565b9150613a088284613644565b9150613a13826139a0565b9150819050949350505050565b7f646174613a6170706c69636174696f6e2f6a736f6e3b6261736536342c000000600082015250565b6000613a56601d836133b3565b9150613a6182613a20565b601d82019050919050565b6000613a7782613a49565b9150613a838284613644565b915081905092915050565b60006040820190508181036000830152613aa88185612af0565b90508181036020830152613abc8184612af0565b90509392505050565b7f4552433732313a206f70657261746f7220717565727920666f72206e6f6e657860008201527f697374656e7420746f6b656e0000000000000000000000000000000000000000602082015250565b6000613b21602c83612a9b565b9150613b2c82613ac5565b604082019050919050565b60006020820190508181036000830152613b5081613b14565b9050919050565b7f4552433732313a207472616e736665722066726f6d20696e636f72726563742060008201527f6f776e6572000000000000000000000000000000000000000000000000000000602082015250565b6000613bb3602583612a9b565b9150613bbe82613b57565b604082019050919050565b60006020820190508181036000830152613be281613ba6565b9050919050565b7f4552433732313a207472616e7366657220746f20746865207a65726f2061646460008201527f7265737300000000000000000000000000000000000000000000000000000000602082015250565b6000613c45602483612a9b565b9150613c5082613be9565b604082019050919050565b60006020820190508181036000830152613c7481613c38565b9050919050565b7f4e487b7100000000000000000000000000000000000000000000000000000000600052601160045260246000fd5b6000613cb582612b4b565b9150613cc083612b4b565b925082821015613cd357613cd2613c7b565b5b828203905092915050565b6000613ce982612b4b565b9150613cf483612b4b565b9250827fffffffffffffffffffffffffffffffffffffffffffffffffffffffffffffffff03821115613d2957613d28613c7b565b5b828201905092915050565b7f4552433732313a20617070726f766520746f2063616c6c657200000000000000600082015250565b6000613d6a601983612a9b565b9150613d7582613d34565b602082019050919050565b60006020820190508181036000830152613d9981613d5d565b9050919050565b7f4552433732313a207472616e7366657220746f206e6f6e20455243373231526560008201527f63656976657220696d706c656d656e7465720000000000000000000000000000602082015250565b6000613dfc603283612a9b565b9150613e0782613da0565b604082019050919050565b60006020820190508181036000830152613e2b81613def565b9050919050565b7f4552433732314d657461646174613a2055524920717565727920666f72206e6f60008201527f6e6578697374656e7420746f6b656e0000000000000000000000000000000000602082015250565b6000613e8e602f83612a9b565b9150613e9982613e32565b604082019050919050565b60006020820190508181036000830152613ebd81613e81565b9050919050565b7f4e487b7100000000000000000000000000000000000000000000000000000000600052603260045260246000fd5b6000613efe82612b4b565b91507fffffffffffffffffffffffffffffffffffffffffffffffffffffffffffffffff821415613f3157613f30613c7b565b5b600182019050919050565b60006040820190508181036000830152613f568185612af0565b9050613f656020830184612be0565b9392505050565b7f4e487b7100000000000000000000000000000000000000000000000000000000600052601260045260246000fd5b6000613fa682612b4b565b9150613fb183612b4b565b925082613fc157613fc0613f6c565b5b828204905092915050565b6000613fd782612b4b565b9150613fe283612b4b565b925082613ff257613ff1613f6c565b5b828206905092915050565b600060808201905081810360008301526140178187612af0565b9050818103602083015261402b8186612af0565b9050818103604083015261403f8185612af0565b905061404e6060830184612f21565b95945050505050565b600061406282612b4b565b915061406d83612b4b565b9250817fffffffffffffffffffffffffffffffffffffffffffffffffffffffffffffffff04831182151516156140a6576140a5613c7b565b5b828202905092915050565b7f45524337323155524953746f726167653a2055524920736574206f66206e6f6e60008201527f6578697374656e7420746f6b656e000000000000000000000000000000000000602082015250565b600061410d602e83612a9b565b9150614118826140b1565b604082019050919050565b6000602082019050818103600083015261413c81614100565b9050919050565b600081519050919050565b600082825260208201905092915050565b600061416a82614143565b614174818561414e565b9350614184818560208601612aac565b61418d81612adf565b840191505092915050565b60006080820190506141ad6000830187612be0565b6141ba6020830186612be0565b6141c76040830185612f21565b81810360608301526141d9818461415f565b905095945050505050565b6000815190506141f381612a01565b92915050565b60006020828403121561420f5761420e6129cb565b5b600061421d848285016141e4565b91505092915050565b7f4552433732313a206d696e7420746f20746865207a65726f2061646472657373600082015250565b600061425c602083612a9b565b915061426782614226565b602082019050919050565b6000602082019050818103600083015261428b8161424f565b9050919050565b7f4552433732313a20746f6b656e20616c7265616479206d696e74656400000000600082015250565b60006142c8601c83612a9b565b91506142d382614292565b602082019050919050565b600060208201905081810360008301526142f7816142bb565b905091905056fe0a2d2d2d2d2d2d2d2d2d2d2d2d2d2d2d2d2d2d2d2d2d2d2d2d2d2d2d2d2d2d2d2d2d2d2d2d2d2d2d2d2d2d2d2d2d2d2d2d2d2d2d2d2d2d2d2d5265676973746572696e672025732e2573206f6e2074686520636f6e7472616374207769746820746f6b656e49442025642d2d2d2d2d2d2d2d2d2d2d2d2d2d2d2d2d2d2d2d2d2d2d2d2d2d2d2d2d2d2d2d2d2d2d2d2d2d2d2d2d2d2d2d2d2d2d2d2d2d2d2d2d2d2d2d0a4142434445464748494a4b4c4d4e4f505152535455565758595a6162636465666768696a6b6c6d6e6f707172737475767778797a303132333435363738392b2fa2646970667358221220fee7cc72756f77ea4f71df7fc82c1972bbf0d55f99d689885fa5a061be937c6c64736f6c634300080a00333c73766720786d6c6e733d22687474703a2f2f7777772e77332e6f72672f323030302f737667222077696474683d2232373022206865696768743d22323730222066696c6c3d226e6f6e65223e3c706174682066696c6c3d2275726c282342292220643d224d302030683237307632373048307a222f3e3c646566733e3c66696c7465722069643d22412220636f6c6f722d696e746572706f6c6174696f6e2d66696c746572733d2273524742222066696c746572556e6974733d227573657253706163654f6e55736522206865696768743d22323730222077696474683d22323730223e3c666544726f70536861646f772064783d2230222064793d22312220737464446576696174696f6e3d22322220666c6f6f642d6f7061636974793d222e323235222077696474683d223230302522206865696768743d2232303025222f3e3c2f66696c7465723e3c2f646566733e3c7061746820643d224d37322e3836332034322e393439632d2e3636382d2e3338372d312e3432362d2e35392d322e3139372d2e3539732d312e3532392e3230342d322e3139372e35396c2d31302e30383120362e3033322d362e383520332e3933342d31302e30383120362e303332632d2e3636382e3338372d312e3432362e35392d322e3139372e3539732d312e3532392d2e3230342d322e3139372d2e35396c2d382e3031332d342e37323161342e353220342e35322030203020312d312e3538392d312e363136632d2e3338342d2e3636352d2e3539342d312e3431382d2e3630382d322e313837762d392e3331632d2e3031332d2e3737352e3138352d312e3533382e3537322d322e32303861342e323520342e323520302030203120312e3632352d312e3539356c372e3838342d342e3539632e3636382d2e33383720312e3432362d2e353920322e3139372d2e353973312e3532392e32303420322e3139372e35396c372e38383420342e353961342e353220342e353220302030203120312e35383920312e363136632e3338342e3636352e35393420312e3431382e36303820322e31383776362e3033326c362e38352d342e303635762d362e303332632e3031332d2e3737352d2e3138352d312e3533382d2e3537322d322e32303861342e323520342e32352030203020302d312e3632352d312e3539354c34312e3435362032342e3539632d2e3636382d2e3338372d312e3432362d2e35392d322e3139372d2e3539732d312e3532392e3230342d322e3139372e35396c2d31342e38363420382e36353561342e323520342e32352030203020302d312e36323520312e353935632d2e3338372e36372d2e35383520312e3433342d2e35373220322e3230387631372e343431632d2e3031332e3737352e31383520312e3533382e35373220322e32303861342e323520342e323520302030203020312e36323520312e3539356c31342e38363420382e363535632e3636382e33383720312e3432362e353920322e3139372e353973312e3532392d2e32303420322e3139372d2e35396c31302e3038312d352e39303120362e38352d342e3036352031302e3038312d352e393031632e3636382d2e33383720312e3432362d2e353920322e3139372d2e353973312e3532392e32303420322e3139372e35396c372e38383420342e353961342e353220342e353220302030203120312e35383920312e363136632e3338342e3636352e35393420312e3431382e36303820322e31383776392e333131632e3031332e3737352d2e31383520312e3533382d2e35373220322e32303861342e323520342e32352030203020312d312e36323520312e3539356c2d372e38383420342e373231632d2e3636382e3338372d312e3432362e35392d322e3139372e3539732d312e3532392d2e3230342d322e3139372d2e35396c2d372e3838342d342e353961342e353220342e35322030203020312d312e3538392d312e363136632d2e3338352d2e3636352d2e3539342d312e3431382d2e3630382d322e313837762d362e3033326c2d362e383520342e30363576362e303332632d2e3031332e3737352e31383520312e3533382e35373220322e32303861342e323520342e323520302030203020312e36323520312e3539356c31342e38363420382e363535632e3636382e33383720312e3432362e353920322e3139372e353973312e3532392d2e32303420322e3139372d2e35396c31342e3836342d382e363535632e3635372d2e33393420312e3230342d2e393520312e3538392d312e363136732e3539342d312e3431382e3630392d322e3138375635352e353338632e3031332d2e3737352d2e3138352d312e3533382d2e3537322d322e32303861342e323520342e32352030203020302d312e3632352d312e3539356c2d31342e3939332d382e3738367a222066696c6c3d2223666666222f3e3c646566733e3c6c696e6561724772616469656e742069643d2242222078313d2230222079313d2230222078323d22323730222079323d2232373022206772616469656e74556e6974733d227573657253706163654f6e557365223e3c73746f702073746f702d636f6c6f723d2223636235656565222f3e3c73746f70206f66667365743d2231222073746f702d636f6c6f723d2223306364376534222073746f702d6f7061636974793d222e3939222f3e3c2f6c696e6561724772616469656e743e3c2f646566733e3c7465787420783d2233322e352220793d223233312220666f6e742d73697a653d223237222066696c6c3d2223666666222066696c7465723d2275726c282341292220666f6e742d66616d696c793d22506c7573204a616b617274612053616e732c44656a6156752053616e732c4e6f746f20436f6c6f7220456d6f6a692c4170706c6520436f6c6f7220456d6f6a692c73616e732d73657269662220666f6e742d7765696768743d22626f6c64223e",
  "linkReferences": {},
  "deployedLinkReferences": {}
}